{
  "_format": "hh-sol-artifact-1",
  "contractName": "CryptoDevs",
  "sourceName": "contracts/CryptoDevs.sol",
  "abi": [
    {
      "inputs": [
        {
          "internalType": "string",
          "name": "baseURI",
          "type": "string"
        },
        {
          "internalType": "address",
          "name": "whitelistContract",
          "type": "address"
        }
      ],
      "stateMutability": "nonpayable",
      "type": "constructor"
    },
    {
      "anonymous": false,
      "inputs": [
        {
          "indexed": true,
          "internalType": "address",
          "name": "owner",
          "type": "address"
        },
        {
          "indexed": true,
          "internalType": "address",
          "name": "approved",
          "type": "address"
        },
        {
          "indexed": true,
          "internalType": "uint256",
          "name": "tokenId",
          "type": "uint256"
        }
      ],
      "name": "Approval",
      "type": "event"
    },
    {
      "anonymous": false,
      "inputs": [
        {
          "indexed": true,
          "internalType": "address",
          "name": "owner",
          "type": "address"
        },
        {
          "indexed": true,
          "internalType": "address",
          "name": "operator",
          "type": "address"
        },
        {
          "indexed": false,
          "internalType": "bool",
          "name": "approved",
          "type": "bool"
        }
      ],
      "name": "ApprovalForAll",
      "type": "event"
    },
    {
      "anonymous": false,
      "inputs": [
        {
          "indexed": true,
          "internalType": "address",
          "name": "previousOwner",
          "type": "address"
        },
        {
          "indexed": true,
          "internalType": "address",
          "name": "newOwner",
          "type": "address"
        }
      ],
      "name": "OwnershipTransferred",
      "type": "event"
    },
    {
      "anonymous": false,
      "inputs": [
        {
          "indexed": true,
          "internalType": "address",
          "name": "from",
          "type": "address"
        },
        {
          "indexed": true,
          "internalType": "address",
          "name": "to",
          "type": "address"
        },
        {
          "indexed": true,
          "internalType": "uint256",
          "name": "tokenId",
          "type": "uint256"
        }
      ],
      "name": "Transfer",
      "type": "event"
    },
    {
      "stateMutability": "payable",
      "type": "fallback"
    },
    {
      "inputs": [],
      "name": "_paused",
      "outputs": [
        {
          "internalType": "bool",
          "name": "",
          "type": "bool"
        }
      ],
      "stateMutability": "view",
      "type": "function"
    },
    {
      "inputs": [],
      "name": "_price",
      "outputs": [
        {
          "internalType": "uint256",
          "name": "",
          "type": "uint256"
        }
      ],
      "stateMutability": "view",
      "type": "function"
    },
    {
      "inputs": [
        {
          "internalType": "address",
          "name": "to",
          "type": "address"
        },
        {
          "internalType": "uint256",
          "name": "tokenId",
          "type": "uint256"
        }
      ],
      "name": "approve",
      "outputs": [],
      "stateMutability": "nonpayable",
      "type": "function"
    },
    {
      "inputs": [
        {
          "internalType": "address",
          "name": "owner",
          "type": "address"
        }
      ],
      "name": "balanceOf",
      "outputs": [
        {
          "internalType": "uint256",
          "name": "",
          "type": "uint256"
        }
      ],
      "stateMutability": "view",
      "type": "function"
    },
    {
      "inputs": [
        {
          "internalType": "uint256",
          "name": "tokenId",
          "type": "uint256"
        }
      ],
      "name": "getApproved",
      "outputs": [
        {
          "internalType": "address",
          "name": "",
          "type": "address"
        }
      ],
      "stateMutability": "view",
      "type": "function"
    },
    {
      "inputs": [
        {
          "internalType": "address",
          "name": "owner",
          "type": "address"
        },
        {
          "internalType": "address",
          "name": "operator",
          "type": "address"
        }
      ],
      "name": "isApprovedForAll",
      "outputs": [
        {
          "internalType": "bool",
          "name": "",
          "type": "bool"
        }
      ],
      "stateMutability": "view",
      "type": "function"
    },
    {
      "inputs": [],
      "name": "maxTokenIds",
      "outputs": [
        {
          "internalType": "uint256",
          "name": "",
          "type": "uint256"
        }
      ],
      "stateMutability": "view",
      "type": "function"
    },
    {
      "inputs": [],
      "name": "mint",
      "outputs": [],
      "stateMutability": "payable",
      "type": "function"
    },
    {
      "inputs": [],
      "name": "name",
      "outputs": [
        {
          "internalType": "string",
          "name": "",
          "type": "string"
        }
      ],
      "stateMutability": "view",
      "type": "function"
    },
    {
      "inputs": [],
      "name": "owner",
      "outputs": [
        {
          "internalType": "address",
          "name": "",
          "type": "address"
        }
      ],
      "stateMutability": "view",
      "type": "function"
    },
    {
      "inputs": [
        {
          "internalType": "uint256",
          "name": "tokenId",
          "type": "uint256"
        }
      ],
      "name": "ownerOf",
      "outputs": [
        {
          "internalType": "address",
          "name": "",
          "type": "address"
        }
      ],
      "stateMutability": "view",
      "type": "function"
    },
    {
      "inputs": [],
      "name": "presaleEnded",
      "outputs": [
        {
          "internalType": "uint256",
          "name": "",
          "type": "uint256"
        }
      ],
      "stateMutability": "view",
      "type": "function"
    },
    {
      "inputs": [],
      "name": "presaleMint",
      "outputs": [],
      "stateMutability": "payable",
      "type": "function"
    },
    {
      "inputs": [],
      "name": "presaleStarted",
      "outputs": [
        {
          "internalType": "bool",
          "name": "",
          "type": "bool"
        }
      ],
      "stateMutability": "view",
      "type": "function"
    },
    {
      "inputs": [],
      "name": "renounceOwnership",
      "outputs": [],
      "stateMutability": "nonpayable",
      "type": "function"
    },
    {
      "inputs": [
        {
          "internalType": "address",
          "name": "from",
          "type": "address"
        },
        {
          "internalType": "address",
          "name": "to",
          "type": "address"
        },
        {
          "internalType": "uint256",
          "name": "tokenId",
          "type": "uint256"
        }
      ],
      "name": "safeTransferFrom",
      "outputs": [],
      "stateMutability": "nonpayable",
      "type": "function"
    },
    {
      "inputs": [
        {
          "internalType": "address",
          "name": "from",
          "type": "address"
        },
        {
          "internalType": "address",
          "name": "to",
          "type": "address"
        },
        {
          "internalType": "uint256",
          "name": "tokenId",
          "type": "uint256"
        },
        {
          "internalType": "bytes",
          "name": "data",
          "type": "bytes"
        }
      ],
      "name": "safeTransferFrom",
      "outputs": [],
      "stateMutability": "nonpayable",
      "type": "function"
    },
    {
      "inputs": [
        {
          "internalType": "address",
          "name": "operator",
          "type": "address"
        },
        {
          "internalType": "bool",
          "name": "approved",
          "type": "bool"
        }
      ],
      "name": "setApprovalForAll",
      "outputs": [],
      "stateMutability": "nonpayable",
      "type": "function"
    },
    {
      "inputs": [
        {
          "internalType": "bool",
          "name": "val",
          "type": "bool"
        }
      ],
      "name": "setPaused",
      "outputs": [],
      "stateMutability": "nonpayable",
      "type": "function"
    },
    {
      "inputs": [],
      "name": "startPresale",
      "outputs": [],
      "stateMutability": "nonpayable",
      "type": "function"
    },
    {
      "inputs": [
        {
          "internalType": "bytes4",
          "name": "interfaceId",
          "type": "bytes4"
        }
      ],
      "name": "supportsInterface",
      "outputs": [
        {
          "internalType": "bool",
          "name": "",
          "type": "bool"
        }
      ],
      "stateMutability": "view",
      "type": "function"
    },
    {
      "inputs": [],
      "name": "symbol",
      "outputs": [
        {
          "internalType": "string",
          "name": "",
          "type": "string"
        }
      ],
      "stateMutability": "view",
      "type": "function"
    },
    {
      "inputs": [
        {
          "internalType": "uint256",
          "name": "index",
          "type": "uint256"
        }
      ],
      "name": "tokenByIndex",
      "outputs": [
        {
          "internalType": "uint256",
          "name": "",
          "type": "uint256"
        }
      ],
      "stateMutability": "view",
      "type": "function"
    },
    {
      "inputs": [],
      "name": "tokenIds",
      "outputs": [
        {
          "internalType": "uint256",
          "name": "",
          "type": "uint256"
        }
      ],
      "stateMutability": "view",
      "type": "function"
    },
    {
      "inputs": [
        {
          "internalType": "address",
          "name": "owner",
          "type": "address"
        },
        {
          "internalType": "uint256",
          "name": "index",
          "type": "uint256"
        }
      ],
      "name": "tokenOfOwnerByIndex",
      "outputs": [
        {
          "internalType": "uint256",
          "name": "",
          "type": "uint256"
        }
      ],
      "stateMutability": "view",
      "type": "function"
    },
    {
      "inputs": [
        {
          "internalType": "uint256",
          "name": "tokenId",
          "type": "uint256"
        }
      ],
      "name": "tokenURI",
      "outputs": [
        {
          "internalType": "string",
          "name": "",
          "type": "string"
        }
      ],
      "stateMutability": "view",
      "type": "function"
    },
    {
      "inputs": [],
      "name": "totalSupply",
      "outputs": [
        {
          "internalType": "uint256",
          "name": "",
          "type": "uint256"
        }
      ],
      "stateMutability": "view",
      "type": "function"
    },
    {
      "inputs": [
        {
          "internalType": "address",
          "name": "from",
          "type": "address"
        },
        {
          "internalType": "address",
          "name": "to",
          "type": "address"
        },
        {
          "internalType": "uint256",
          "name": "tokenId",
          "type": "uint256"
        }
      ],
      "name": "transferFrom",
      "outputs": [],
      "stateMutability": "nonpayable",
      "type": "function"
    },
    {
      "inputs": [
        {
          "internalType": "address",
          "name": "newOwner",
          "type": "address"
        }
      ],
      "name": "transferOwnership",
      "outputs": [],
      "stateMutability": "nonpayable",
      "type": "function"
    },
    {
      "inputs": [],
      "name": "withdraw",
      "outputs": [],
      "stateMutability": "nonpayable",
      "type": "function"
    },
    {
      "stateMutability": "payable",
      "type": "receive"
    }
  ],
  "bytecode": "0x6080604052662386f26fc10000600c556014600e553480156200002157600080fd5b506040516200452a3803806200452a833981810160405281019062000047919062000370565b6040518060400160405280600b81526020017f43727970746f20446576730000000000000000000000000000000000000000008152506040518060400160405280600281526020017f43440000000000000000000000000000000000000000000000000000000000008152508160009080519060200190620000cb92919062000237565b508060019080519060200190620000e492919062000237565b50505062000107620000fb6200016960201b60201c565b6200017160201b60201c565b81600b90805190602001906200011f92919062000237565b5080601060006101000a81548173ffffffffffffffffffffffffffffffffffffffff021916908373ffffffffffffffffffffffffffffffffffffffff160217905550505062000588565b600033905090565b6000600a60009054906101000a900473ffffffffffffffffffffffffffffffffffffffff16905081600a60006101000a81548173ffffffffffffffffffffffffffffffffffffffff021916908373ffffffffffffffffffffffffffffffffffffffff1602179055508173ffffffffffffffffffffffffffffffffffffffff168173ffffffffffffffffffffffffffffffffffffffff167f8be0079c531659141344cd1fd0a4f28419497f9722a3daafe3b4186f6b6457e060405160405180910390a35050565b828054620002459062000493565b90600052602060002090601f016020900481019282620002695760008555620002b5565b82601f106200028457805160ff1916838001178555620002b5565b82800160010185558215620002b5579182015b82811115620002b457825182559160200191906001019062000297565b5b509050620002c49190620002c8565b5090565b5b80821115620002e3576000816000905550600101620002c9565b5090565b6000620002fe620002f884620003f3565b620003ca565b9050828152602081018484840111156200031757600080fd5b620003248482856200045d565b509392505050565b6000815190506200033d816200056e565b92915050565b600082601f8301126200035557600080fd5b815162000367848260208601620002e7565b91505092915050565b600080604083850312156200038457600080fd5b600083015167ffffffffffffffff8111156200039f57600080fd5b620003ad8582860162000343565b9250506020620003c0858286016200032c565b9150509250929050565b6000620003d6620003e9565b9050620003e48282620004c9565b919050565b6000604051905090565b600067ffffffffffffffff8211156200041157620004106200052e565b5b6200041c826200055d565b9050602081019050919050565b600062000436826200043d565b9050919050565b600073ffffffffffffffffffffffffffffffffffffffff82169050919050565b60005b838110156200047d57808201518184015260208101905062000460565b838111156200048d576000848401525b50505050565b60006002820490506001821680620004ac57607f821691505b60208210811415620004c357620004c2620004ff565b5b50919050565b620004d4826200055d565b810181811067ffffffffffffffff82111715620004f657620004f56200052e565b5b80604052505050565b7f4e487b7100000000000000000000000000000000000000000000000000000000600052602260045260246000fd5b7f4e487b7100000000000000000000000000000000000000000000000000000000600052604160045260246000fd5b6000601f19601f8301169050919050565b620005798162000429565b81146200058557600080fd5b50565b613f9280620005986000396000f3fe6080604052600436106101d15760003560e01c80634f6ccce7116100f75780638da5cb5b11610095578063c87b56dd11610064578063c87b56dd1461061a578063e580b2b014610657578063e985e9c514610682578063f2fde38b146106bf576101d8565b80638da5cb5b1461057257806395d89b411461059d578063a22cb465146105c8578063b88d4fde146105f1576101d8565b80636352211e116100d15780636352211e146104b657806370a08231146104f3578063714cff5614610530578063715018a61461055b576101d8565b80634f6ccce71461044457806359533d6c146104815780635f7696211461048b576101d8565b806316c38b3c1161016f57806323b872dd1161013e57806323b872dd1461039e5780632f745c59146103c75780633ccfd60b1461040457806342842e0e1461041b576101d8565b806316c38b3c146102f457806316c61ccc1461031d57806318160ddd14610348578063235b6ea114610373576101d8565b806306fdde03116101ab57806306fdde0314610259578063081812fc14610284578063095ea7b3146102c15780631249c58b146102ea576101d8565b806301ffc9a7146101da57806304549d6f1461021757806304c98b2b14610242576101d8565b366101d857005b005b3480156101e657600080fd5b5061020160048036038101906101fc9190612da4565b6106e8565b60405161020e91906132fa565b60405180910390f35b34801561022357600080fd5b5061022c610762565b60405161023991906132fa565b60405180910390f35b34801561024e57600080fd5b50610257610775565b005b34801561026557600080fd5b5061026e6107ae565b60405161027b9190613315565b60405180910390f35b34801561029057600080fd5b506102ab60048036038101906102a69190612df6565b610840565b6040516102b89190613293565b60405180910390f35b3480156102cd57600080fd5b506102e860048036038101906102e39190612d16565b610886565b005b6102f261099e565b005b34801561030057600080fd5b5061031b60048036038101906103169190612d52565b610afe565b005b34801561032957600080fd5b50610332610b23565b60405161033f91906132fa565b60405180910390f35b34801561035457600080fd5b5061035d610b36565b60405161036a9190613637565b60405180910390f35b34801561037f57600080fd5b50610388610b43565b6040516103959190613637565b60405180910390f35b3480156103aa57600080fd5b506103c560048036038101906103c09190612c10565b610b49565b005b3480156103d357600080fd5b506103ee60048036038101906103e99190612d16565b610ba9565b6040516103fb9190613637565b60405180910390f35b34801561041057600080fd5b50610419610c4e565b005b34801561042757600080fd5b50610442600480360381019061043d9190612c10565b610d18565b005b34801561045057600080fd5b5061046b60048036038101906104669190612df6565b610d38565b6040516104789190613637565b60405180910390f35b610489610dcf565b005b34801561049757600080fd5b506104a0611018565b6040516104ad9190613637565b60405180910390f35b3480156104c257600080fd5b506104dd60048036038101906104d89190612df6565b61101e565b6040516104ea9190613293565b60405180910390f35b3480156104ff57600080fd5b5061051a60048036038101906105159190612bab565b6110a5565b6040516105279190613637565b60405180910390f35b34801561053c57600080fd5b5061054561115d565b6040516105529190613637565b60405180910390f35b34801561056757600080fd5b50610570611163565b005b34801561057e57600080fd5b50610587611177565b6040516105949190613293565b60405180910390f35b3480156105a957600080fd5b506105b26111a1565b6040516105bf9190613315565b60405180910390f35b3480156105d457600080fd5b506105ef60048036038101906105ea9190612cda565b611233565b005b3480156105fd57600080fd5b5061061860048036038101906106139190612c5f565b611249565b005b34801561062657600080fd5b50610641600480360381019061063c9190612df6565b6112ab565b60405161064e9190613315565b60405180910390f35b34801561066357600080fd5b5061066c611313565b6040516106799190613637565b60405180910390f35b34801561068e57600080fd5b506106a960048036038101906106a49190612bd4565b611319565b6040516106b691906132fa565b60405180910390f35b3480156106cb57600080fd5b506106e660048036038101906106e19190612bab565b6113ad565b005b60007f780e9d63000000000000000000000000000000000000000000000000000000007bffffffffffffffffffffffffffffffffffffffffffffffffffffffff1916827bffffffffffffffffffffffffffffffffffffffffffffffffffffffff1916148061075b575061075a82611431565b5b9050919050565b601060149054906101000a900460ff1681565b61077d611513565b6001601060146101000a81548160ff02191690831515021790555061012c426107a691906136f6565b601181905550565b6060600080546107bd90613836565b80601f01602080910402602001604051908101604052809291908181526020018280546107e990613836565b80156108365780601f1061080b57610100808354040283529160200191610836565b820191906000526020600020905b81548152906001019060200180831161081957829003601f168201915b5050505050905090565b600061084b82611591565b6004600083815260200190815260200160002060009054906101000a900473ffffffffffffffffffffffffffffffffffffffff169050919050565b60006108918261101e565b90508073ffffffffffffffffffffffffffffffffffffffff168373ffffffffffffffffffffffffffffffffffffffff161415610902576040517f08c379a00000000000000000000000000000000000000000000000000000000081526004016108f990613577565b60405180910390fd5b8073ffffffffffffffffffffffffffffffffffffffff166109216115dc565b73ffffffffffffffffffffffffffffffffffffffff161480610950575061094f8161094a6115dc565b611319565b5b61098f576040517f08c379a0000000000000000000000000000000000000000000000000000000008152600401610986906135b7565b60405180910390fd5b61099983836115e4565b505050565b600d60009054906101000a900460ff16156109ee576040517f08c379a00000000000000000000000000000000000000000000000000000000081526004016109e590613537565b60405180910390fd5b601060149054906101000a900460ff168015610a0c57506011544210155b610a4b576040517f08c379a0000000000000000000000000000000000000000000000000000000008152600401610a4290613617565b60405180910390fd5b600e54600f5410610a91576040517f08c379a0000000000000000000000000000000000000000000000000000000008152600401610a88906133b7565b60405180910390fd5b600c54341015610ad6576040517f08c379a0000000000000000000000000000000000000000000000000000000008152600401610acd90613597565b60405180910390fd5b6001600f6000828254610ae991906136f6565b92505081905550610afc33600f5461169d565b565b610b06611513565b80600d60006101000a81548160ff02191690831515021790555050565b600d60009054906101000a900460ff1681565b6000600880549050905090565b600c5481565b610b5a610b546115dc565b826116bb565b610b99576040517f08c379a0000000000000000000000000000000000000000000000000000000008152600401610b9090613337565b60405180910390fd5b610ba4838383611750565b505050565b6000610bb4836110a5565b8210610bf5576040517f08c379a0000000000000000000000000000000000000000000000000000000008152600401610bec90613357565b60405180910390fd5b600660008473ffffffffffffffffffffffffffffffffffffffff1673ffffffffffffffffffffffffffffffffffffffff168152602001908152602001600020600083815260200190815260200160002054905092915050565b610c56611513565b6000610c60611177565b9050600047905060008273ffffffffffffffffffffffffffffffffffffffff1682604051610c8d9061327e565b60006040518083038185875af1925050503d8060008114610cca576040519150601f19603f3d011682016040523d82523d6000602084013e610ccf565b606091505b5050905080610d13576040517f08c379a0000000000000000000000000000000000000000000000000000000008152600401610d0a90613457565b60405180910390fd5b505050565b610d3383838360405180602001604052806000815250611249565b505050565b6000610d42610b36565b8210610d83576040517f08c379a0000000000000000000000000000000000000000000000000000000008152600401610d7a906135d7565b60405180910390fd5b60088281548110610dbd577f4e487b7100000000000000000000000000000000000000000000000000000000600052603260045260246000fd5b90600052602060002001549050919050565b600d60009054906101000a900460ff1615610e1f576040517f08c379a0000000000000000000000000000000000000000000000000000000008152600401610e1690613537565b60405180910390fd5b601060149054906101000a900460ff168015610e3c575060115442105b610e7b576040517f08c379a0000000000000000000000000000000000000000000000000000000008152600401610e7290613437565b60405180910390fd5b601060009054906101000a900473ffffffffffffffffffffffffffffffffffffffff1673ffffffffffffffffffffffffffffffffffffffff166306c933d8336040518263ffffffff1660e01b8152600401610ed69190613293565b60206040518083038186803b158015610eee57600080fd5b505afa158015610f02573d6000803e3d6000fd5b505050506040513d601f19601f82011682018060405250810190610f269190612d7b565b610f65576040517f08c379a0000000000000000000000000000000000000000000000000000000008152600401610f5c906134f7565b60405180910390fd5b600e54600f5410610fab576040517f08c379a0000000000000000000000000000000000000000000000000000000008152600401610fa2906133f7565b60405180910390fd5b600c54341015610ff0576040517f08c379a0000000000000000000000000000000000000000000000000000000008152600401610fe790613597565b60405180910390fd5b6001600f600082825461100391906136f6565b9250508190555061101633600f5461169d565b565b600e5481565b60008061102a83611a4a565b9050600073ffffffffffffffffffffffffffffffffffffffff168173ffffffffffffffffffffffffffffffffffffffff16141561109c576040517f08c379a000000000000000000000000000000000000000000000000000000000815260040161109390613557565b60405180910390fd5b80915050919050565b60008073ffffffffffffffffffffffffffffffffffffffff168273ffffffffffffffffffffffffffffffffffffffff161415611116576040517f08c379a000000000000000000000000000000000000000000000000000000000815260040161110d906134b7565b60405180910390fd5b600360008373ffffffffffffffffffffffffffffffffffffffff1673ffffffffffffffffffffffffffffffffffffffff168152602001908152602001600020549050919050565b600f5481565b61116b611513565b6111756000611a87565b565b6000600a60009054906101000a900473ffffffffffffffffffffffffffffffffffffffff16905090565b6060600180546111b090613836565b80601f01602080910402602001604051908101604052809291908181526020018280546111dc90613836565b80156112295780601f106111fe57610100808354040283529160200191611229565b820191906000526020600020905b81548152906001019060200180831161120c57829003601f168201915b5050505050905090565b61124561123e6115dc565b8383611b4d565b5050565b61125a6112546115dc565b836116bb565b611299576040517f08c379a000000000000000000000000000000000000000000000000000000000815260040161129090613337565b60405180910390fd5b6112a584848484611cba565b50505050565b60606112b682611591565b60006112c0611d16565b905060008151116112e0576040518060200160405280600081525061130b565b806112ea84611da8565b6040516020016112fb92919061325a565b6040516020818303038152906040525b915050919050565b60115481565b6000600560008473ffffffffffffffffffffffffffffffffffffffff1673ffffffffffffffffffffffffffffffffffffffff16815260200190815260200160002060008373ffffffffffffffffffffffffffffffffffffffff1673ffffffffffffffffffffffffffffffffffffffff16815260200190815260200160002060009054906101000a900460ff16905092915050565b6113b5611513565b600073ffffffffffffffffffffffffffffffffffffffff168173ffffffffffffffffffffffffffffffffffffffff161415611425576040517f08c379a000000000000000000000000000000000000000000000000000000000815260040161141c90613397565b60405180910390fd5b61142e81611a87565b50565b60007f80ac58cd000000000000000000000000000000000000000000000000000000007bffffffffffffffffffffffffffffffffffffffffffffffffffffffff1916827bffffffffffffffffffffffffffffffffffffffffffffffffffffffff191614806114fc57507f5b5e139f000000000000000000000000000000000000000000000000000000007bffffffffffffffffffffffffffffffffffffffffffffffffffffffff1916827bffffffffffffffffffffffffffffffffffffffffffffffffffffffff1916145b8061150c575061150b82611ecc565b5b9050919050565b61151b6115dc565b73ffffffffffffffffffffffffffffffffffffffff16611539611177565b73ffffffffffffffffffffffffffffffffffffffff161461158f576040517f08c379a000000000000000000000000000000000000000000000000000000000815260040161158690613517565b60405180910390fd5b565b61159a81611f36565b6115d9576040517f08c379a00000000000000000000000000000000000000000000000000000000081526004016115d090613557565b60405180910390fd5b50565b600033905090565b816004600083815260200190815260200160002060006101000a81548173ffffffffffffffffffffffffffffffffffffffff021916908373ffffffffffffffffffffffffffffffffffffffff160217905550808273ffffffffffffffffffffffffffffffffffffffff166116578361101e565b73ffffffffffffffffffffffffffffffffffffffff167f8c5be1e5ebec7d5bd14f71427d1e84f3dd0314c0f7b2291e5b200ac8c7c3b92560405160405180910390a45050565b6116b7828260405180602001604052806000815250611f77565b5050565b6000806116c78361101e565b90508073ffffffffffffffffffffffffffffffffffffffff168473ffffffffffffffffffffffffffffffffffffffff16148061170957506117088185611319565b5b8061174757508373ffffffffffffffffffffffffffffffffffffffff1661172f84610840565b73ffffffffffffffffffffffffffffffffffffffff16145b91505092915050565b8273ffffffffffffffffffffffffffffffffffffffff166117708261101e565b73ffffffffffffffffffffffffffffffffffffffff16146117c6576040517f08c379a00000000000000000000000000000000000000000000000000000000081526004016117bd906133d7565b60405180910390fd5b600073ffffffffffffffffffffffffffffffffffffffff168273ffffffffffffffffffffffffffffffffffffffff161415611836576040517f08c379a000000000000000000000000000000000000000000000000000000000815260040161182d90613477565b60405180910390fd5b6118438383836001611fd2565b8273ffffffffffffffffffffffffffffffffffffffff166118638261101e565b73ffffffffffffffffffffffffffffffffffffffff16146118b9576040517f08c379a00000000000000000000000000000000000000000000000000000000081526004016118b0906133d7565b60405180910390fd5b6004600082815260200190815260200160002060006101000a81549073ffffffffffffffffffffffffffffffffffffffff02191690556001600360008573ffffffffffffffffffffffffffffffffffffffff1673ffffffffffffffffffffffffffffffffffffffff168152602001908152602001600020600082825403925050819055506001600360008473ffffffffffffffffffffffffffffffffffffffff1673ffffffffffffffffffffffffffffffffffffffff16815260200190815260200160002060008282540192505081905550816002600083815260200190815260200160002060006101000a81548173ffffffffffffffffffffffffffffffffffffffff021916908373ffffffffffffffffffffffffffffffffffffffff160217905550808273ffffffffffffffffffffffffffffffffffffffff168473ffffffffffffffffffffffffffffffffffffffff167fddf252ad1be2c89b69c2b068fc378daa952ba7f163c4a11628f55a4df523b3ef60405160405180910390a4611a458383836001612132565b505050565b60006002600083815260200190815260200160002060009054906101000a900473ffffffffffffffffffffffffffffffffffffffff169050919050565b6000600a60009054906101000a900473ffffffffffffffffffffffffffffffffffffffff16905081600a60006101000a81548173ffffffffffffffffffffffffffffffffffffffff021916908373ffffffffffffffffffffffffffffffffffffffff1602179055508173ffffffffffffffffffffffffffffffffffffffff168173ffffffffffffffffffffffffffffffffffffffff167f8be0079c531659141344cd1fd0a4f28419497f9722a3daafe3b4186f6b6457e060405160405180910390a35050565b8173ffffffffffffffffffffffffffffffffffffffff168373ffffffffffffffffffffffffffffffffffffffff161415611bbc576040517f08c379a0000000000000000000000000000000000000000000000000000000008152600401611bb390613497565b60405180910390fd5b80600560008573ffffffffffffffffffffffffffffffffffffffff1673ffffffffffffffffffffffffffffffffffffffff16815260200190815260200160002060008473ffffffffffffffffffffffffffffffffffffffff1673ffffffffffffffffffffffffffffffffffffffff16815260200190815260200160002060006101000a81548160ff0219169083151502179055508173ffffffffffffffffffffffffffffffffffffffff168373ffffffffffffffffffffffffffffffffffffffff167f17307eab39ab6107e8899845ad3d59bd9653f200f220920489ca2b5937696c3183604051611cad91906132fa565b60405180910390a3505050565b611cc5848484611750565b611cd184848484612138565b611d10576040517f08c379a0000000000000000000000000000000000000000000000000000000008152600401611d0790613377565b60405180910390fd5b50505050565b6060600b8054611d2590613836565b80601f0160208091040260200160405190810160405280929190818152602001828054611d5190613836565b8015611d9e5780601f10611d7357610100808354040283529160200191611d9e565b820191906000526020600020905b815481529060010190602001808311611d8157829003601f168201915b5050505050905090565b606060006001611db7846122cf565b01905060008167ffffffffffffffff811115611dfc577f4e487b7100000000000000000000000000000000000000000000000000000000600052604160045260246000fd5b6040519080825280601f01601f191660200182016040528015611e2e5781602001600182028036833780820191505090505b509050600082602001820190505b600115611ec1578080600190039150507f3031323334353637383961626364656600000000000000000000000000000000600a86061a8153600a8581611eab577f4e487b7100000000000000000000000000000000000000000000000000000000600052601260045260246000fd5b0494506000851415611ebc57611ec1565b611e3c565b819350505050919050565b60007f01ffc9a7000000000000000000000000000000000000000000000000000000007bffffffffffffffffffffffffffffffffffffffffffffffffffffffff1916827bffffffffffffffffffffffffffffffffffffffffffffffffffffffff1916149050919050565b60008073ffffffffffffffffffffffffffffffffffffffff16611f5883611a4a565b73ffffffffffffffffffffffffffffffffffffffff1614159050919050565b611f818383612506565b611f8e6000848484612138565b611fcd576040517f08c379a0000000000000000000000000000000000000000000000000000000008152600401611fc490613377565b60405180910390fd5b505050565b611fde84848484612724565b6001811115612022576040517f08c379a0000000000000000000000000000000000000000000000000000000008152600401612019906135f7565b60405180910390fd5b6000829050600073ffffffffffffffffffffffffffffffffffffffff168573ffffffffffffffffffffffffffffffffffffffff16141561206a576120658161272a565b6120a9565b8373ffffffffffffffffffffffffffffffffffffffff168573ffffffffffffffffffffffffffffffffffffffff16146120a8576120a78582612773565b5b5b600073ffffffffffffffffffffffffffffffffffffffff168473ffffffffffffffffffffffffffffffffffffffff1614156120ec576120e7816128e0565b61212b565b8473ffffffffffffffffffffffffffffffffffffffff168473ffffffffffffffffffffffffffffffffffffffff161461212a576121298482612a23565b5b5b5050505050565b50505050565b60006121598473ffffffffffffffffffffffffffffffffffffffff16612aa2565b156122c2578373ffffffffffffffffffffffffffffffffffffffff1663150b7a026121826115dc565b8786866040518563ffffffff1660e01b81526004016121a494939291906132ae565b602060405180830381600087803b1580156121be57600080fd5b505af19250505080156121ef57506040513d601f19601f820116820180604052508101906121ec9190612dcd565b60015b612272573d806000811461221f576040519150601f19603f3d011682016040523d82523d6000602084013e612224565b606091505b5060008151141561226a576040517f08c379a000000000000000000000000000000000000000000000000000000000815260040161226190613377565b60405180910390fd5b805181602001fd5b63150b7a0260e01b7bffffffffffffffffffffffffffffffffffffffffffffffffffffffff1916817bffffffffffffffffffffffffffffffffffffffffffffffffffffffff1916149150506122c7565b600190505b949350505050565b600080600090507a184f03e93ff9f4daa797ed6e38ed64bf6a1f0100000000000000008310612353577a184f03e93ff9f4daa797ed6e38ed64bf6a1f0100000000000000008381612349577f4e487b7100000000000000000000000000000000000000000000000000000000600052601260045260246000fd5b0492506040810190505b6d04ee2d6d415b85acef810000000083106123b6576d04ee2d6d415b85acef810000000083816123ac577f4e487b7100000000000000000000000000000000000000000000000000000000600052601260045260246000fd5b0492506020810190505b662386f26fc10000831061240b57662386f26fc100008381612401577f4e487b7100000000000000000000000000000000000000000000000000000000600052601260045260246000fd5b0492506010810190505b6305f5e100831061245a576305f5e1008381612450577f4e487b7100000000000000000000000000000000000000000000000000000000600052601260045260246000fd5b0492506008810190505b61271083106124a557612710838161249b577f4e487b7100000000000000000000000000000000000000000000000000000000600052601260045260246000fd5b0492506004810190505b606483106124ee57606483816124e4577f4e487b7100000000000000000000000000000000000000000000000000000000600052601260045260246000fd5b0492506002810190505b600a83106124fd576001810190505b80915050919050565b600073ffffffffffffffffffffffffffffffffffffffff168273ffffffffffffffffffffffffffffffffffffffff161415612576576040517f08c379a000000000000000000000000000000000000000000000000000000000815260040161256d906134d7565b60405180910390fd5b61257f81611f36565b156125bf576040517f08c379a00000000000000000000000000000000000000000000000000000000081526004016125b690613417565b60405180910390fd5b6125cd600083836001611fd2565b6125d681611f36565b15612616576040517f08c379a000000000000000000000000000000000000000000000000000000000815260040161260d90613417565b60405180910390fd5b6001600360008473ffffffffffffffffffffffffffffffffffffffff1673ffffffffffffffffffffffffffffffffffffffff16815260200190815260200160002060008282540192505081905550816002600083815260200190815260200160002060006101000a81548173ffffffffffffffffffffffffffffffffffffffff021916908373ffffffffffffffffffffffffffffffffffffffff160217905550808273ffffffffffffffffffffffffffffffffffffffff16600073ffffffffffffffffffffffffffffffffffffffff167fddf252ad1be2c89b69c2b068fc378daa952ba7f163c4a11628f55a4df523b3ef60405160405180910390a4612720600083836001612132565b5050565b50505050565b6008805490506009600083815260200190815260200160002081905550600881908060018154018082558091505060019003906000526020600020016000909190919091505550565b60006001612780846110a5565b61278a919061374c565b905060006007600084815260200190815260200160002054905081811461286f576000600660008673ffffffffffffffffffffffffffffffffffffffff1673ffffffffffffffffffffffffffffffffffffffff168152602001908152602001600020600084815260200190815260200160002054905080600660008773ffffffffffffffffffffffffffffffffffffffff1673ffffffffffffffffffffffffffffffffffffffff168152602001908152602001600020600084815260200190815260200160002081905550816007600083815260200190815260200160002081905550505b6007600084815260200190815260200160002060009055600660008573ffffffffffffffffffffffffffffffffffffffff1673ffffffffffffffffffffffffffffffffffffffff16815260200190815260200160002060008381526020019081526020016000206000905550505050565b600060016008805490506128f4919061374c565b905060006009600084815260200190815260200160002054905060006008838154811061294a577f4e487b7100000000000000000000000000000000000000000000000000000000600052603260045260246000fd5b906000526020600020015490508060088381548110612992577f4e487b7100000000000000000000000000000000000000000000000000000000600052603260045260246000fd5b906000526020600020018190555081600960008381526020019081526020016000208190555060096000858152602001908152602001600020600090556008805480612a07577f4e487b7100000000000000000000000000000000000000000000000000000000600052603160045260246000fd5b6001900381819060005260206000200160009055905550505050565b6000612a2e836110a5565b905081600660008573ffffffffffffffffffffffffffffffffffffffff1673ffffffffffffffffffffffffffffffffffffffff168152602001908152602001600020600083815260200190815260200160002081905550806007600084815260200190815260200160002081905550505050565b6000808273ffffffffffffffffffffffffffffffffffffffff163b119050919050565b6000612ad8612ad384613677565b613652565b905082815260208101848484011115612af057600080fd5b612afb8482856137f4565b509392505050565b600081359050612b1281613f00565b92915050565b600081359050612b2781613f17565b92915050565b600081519050612b3c81613f17565b92915050565b600081359050612b5181613f2e565b92915050565b600081519050612b6681613f2e565b92915050565b600082601f830112612b7d57600080fd5b8135612b8d848260208601612ac5565b91505092915050565b600081359050612ba581613f45565b92915050565b600060208284031215612bbd57600080fd5b6000612bcb84828501612b03565b91505092915050565b60008060408385031215612be757600080fd5b6000612bf585828601612b03565b9250506020612c0685828601612b03565b9150509250929050565b600080600060608486031215612c2557600080fd5b6000612c3386828701612b03565b9350506020612c4486828701612b03565b9250506040612c5586828701612b96565b9150509250925092565b60008060008060808587031215612c7557600080fd5b6000612c8387828801612b03565b9450506020612c9487828801612b03565b9350506040612ca587828801612b96565b925050606085013567ffffffffffffffff811115612cc257600080fd5b612cce87828801612b6c565b91505092959194509250565b60008060408385031215612ced57600080fd5b6000612cfb85828601612b03565b9250506020612d0c85828601612b18565b9150509250929050565b60008060408385031215612d2957600080fd5b6000612d3785828601612b03565b9250506020612d4885828601612b96565b9150509250929050565b600060208284031215612d6457600080fd5b6000612d7284828501612b18565b91505092915050565b600060208284031215612d8d57600080fd5b6000612d9b84828501612b2d565b91505092915050565b600060208284031215612db657600080fd5b6000612dc484828501612b42565b91505092915050565b600060208284031215612ddf57600080fd5b6000612ded84828501612b57565b91505092915050565b600060208284031215612e0857600080fd5b6000612e1684828501612b96565b91505092915050565b612e2881613780565b82525050565b612e3781613792565b82525050565b6000612e48826136a8565b612e5281856136be565b9350612e62818560208601613803565b612e6b81613926565b840191505092915050565b6000612e81826136b3565b612e8b81856136da565b9350612e9b818560208601613803565b612ea481613926565b840191505092915050565b6000612eba826136b3565b612ec481856136eb565b9350612ed4818560208601613803565b80840191505092915050565b6000612eed602d836136da565b9150612ef882613937565b604082019050919050565b6000612f10602b836136da565b9150612f1b82613986565b604082019050919050565b6000612f336032836136da565b9150612f3e826139d5565b604082019050919050565b6000612f566026836136da565b9150612f6182613a24565b604082019050919050565b6000612f796021836136da565b9150612f8482613a73565b604082019050919050565b6000612f9c6025836136da565b9150612fa782613ac2565b604082019050919050565b6000612fbf6023836136da565b9150612fca82613b11565b604082019050919050565b6000612fe2601c836136da565b9150612fed82613b60565b602082019050919050565b60006130056016836136da565b915061301082613b89565b602082019050919050565b60006130286014836136da565b915061303382613bb2565b602082019050919050565b600061304b6024836136da565b915061305682613bdb565b604082019050919050565b600061306e6019836136da565b915061307982613c2a565b602082019050919050565b60006130916029836136da565b915061309c82613c53565b604082019050919050565b60006130b46020836136da565b91506130bf82613ca2565b602082019050919050565b60006130d76017836136da565b91506130e282613ccb565b602082019050919050565b60006130fa6020836136da565b915061310582613cf4565b602082019050919050565b600061311d6019836136da565b915061312882613d1d565b602082019050919050565b60006131406018836136da565b915061314b82613d46565b602082019050919050565b60006131636021836136da565b915061316e82613d6f565b604082019050919050565b60006131866019836136da565b915061319182613dbe565b602082019050919050565b60006131a96000836136cf565b91506131b482613de7565b600082019050919050565b60006131cc603d836136da565b91506131d782613dea565b604082019050919050565b60006131ef602c836136da565b91506131fa82613e39565b604082019050919050565b60006132126035836136da565b915061321d82613e88565b604082019050919050565b60006132356019836136da565b915061324082613ed7565b602082019050919050565b613254816137ea565b82525050565b60006132668285612eaf565b91506132728284612eaf565b91508190509392505050565b60006132898261319c565b9150819050919050565b60006020820190506132a86000830184612e1f565b92915050565b60006080820190506132c36000830187612e1f565b6132d06020830186612e1f565b6132dd604083018561324b565b81810360608301526132ef8184612e3d565b905095945050505050565b600060208201905061330f6000830184612e2e565b92915050565b6000602082019050818103600083015261332f8184612e76565b905092915050565b6000602082019050818103600083015261335081612ee0565b9050919050565b6000602082019050818103600083015261337081612f03565b9050919050565b6000602082019050818103600083015261339081612f26565b9050919050565b600060208201905081810360008301526133b081612f49565b9050919050565b600060208201905081810360008301526133d081612f6c565b9050919050565b600060208201905081810360008301526133f081612f8f565b9050919050565b6000602082019050818103600083015261341081612fb2565b9050919050565b6000602082019050818103600083015261343081612fd5565b9050919050565b6000602082019050818103600083015261345081612ff8565b9050919050565b600060208201905081810360008301526134708161301b565b9050919050565b600060208201905081810360008301526134908161303e565b9050919050565b600060208201905081810360008301526134b081613061565b9050919050565b600060208201905081810360008301526134d081613084565b9050919050565b600060208201905081810360008301526134f0816130a7565b9050919050565b60006020820190508181036000830152613510816130ca565b9050919050565b60006020820190508181036000830152613530816130ed565b9050919050565b6000602082019050818103600083015261355081613110565b9050919050565b6000602082019050818103600083015261357081613133565b9050919050565b6000602082019050818103600083015261359081613156565b9050919050565b600060208201905081810360008301526135b081613179565b9050919050565b600060208201905081810360008301526135d0816131bf565b9050919050565b600060208201905081810360008301526135f0816131e2565b9050919050565b6000602082019050818103600083015261361081613205565b9050919050565b6000602082019050818103600083015261363081613228565b9050919050565b600060208201905061364c600083018461324b565b92915050565b600061365c61366d565b90506136688282613868565b919050565b6000604051905090565b600067ffffffffffffffff821115613692576136916138f7565b5b61369b82613926565b9050602081019050919050565b600081519050919050565b600081519050919050565b600082825260208201905092915050565b600081905092915050565b600082825260208201905092915050565b600081905092915050565b6000613701826137ea565b915061370c836137ea565b9250827fffffffffffffffffffffffffffffffffffffffffffffffffffffffffffffffff0382111561374157613740613899565b5b828201905092915050565b6000613757826137ea565b9150613762836137ea565b92508282101561377557613774613899565b5b828203905092915050565b600061378b826137ca565b9050919050565b60008115159050919050565b60007fffffffff0000000000000000000000000000000000000000000000000000000082169050919050565b600073ffffffffffffffffffffffffffffffffffffffff82169050919050565b6000819050919050565b82818337600083830152505050565b60005b83811015613821578082015181840152602081019050613806565b83811115613830576000848401525b50505050565b6000600282049050600182168061384e57607f821691505b60208210811415613862576138616138c8565b5b50919050565b61387182613926565b810181811067ffffffffffffffff821117156138905761388f6138f7565b5b80604052505050565b7f4e487b7100000000000000000000000000000000000000000000000000000000600052601160045260246000fd5b7f4e487b7100000000000000000000000000000000000000000000000000000000600052602260045260246000fd5b7f4e487b7100000000000000000000000000000000000000000000000000000000600052604160045260246000fd5b6000601f19601f8301169050919050565b7f4552433732313a2063616c6c6572206973206e6f7420746f6b656e206f776e6560008201527f72206f7220617070726f76656400000000000000000000000000000000000000602082015250565b7f455243373231456e756d657261626c653a206f776e657220696e646578206f7560008201527f74206f6620626f756e6473000000000000000000000000000000000000000000602082015250565b7f4552433732313a207472616e7366657220746f206e6f6e20455243373231526560008201527f63656976657220696d706c656d656e7465720000000000000000000000000000602082015250565b7f4f776e61626c653a206e6577206f776e657220697320746865207a65726f206160008201527f6464726573730000000000000000000000000000000000000000000000000000602082015250565b7f457863656564206d6178696d756d2043727970746f204465767320737570706c60008201527f7900000000000000000000000000000000000000000000000000000000000000602082015250565b7f4552433732313a207472616e736665722066726f6d20696e636f72726563742060008201527f6f776e6572000000000000000000000000000000000000000000000000000000602082015250565b7f4578636565646564206d6178696d756d2043727970746f20446576732073757060008201527f706c790000000000000000000000000000000000000000000000000000000000602082015250565b7f4552433732313a20746f6b656e20616c7265616479206d696e74656400000000600082015250565b7f50726573616c65206973206e6f742072756e6e696e6700000000000000000000600082015250565b7f4661696c656420746f2073656e64204574686572000000000000000000000000600082015250565b7f4552433732313a207472616e7366657220746f20746865207a65726f2061646460008201527f7265737300000000000000000000000000000000000000000000000000000000602082015250565b7f4552433732313a20617070726f766520746f2063616c6c657200000000000000600082015250565b7f4552433732313a2061646472657373207a65726f206973206e6f74206120766160008201527f6c6964206f776e65720000000000000000000000000000000000000000000000602082015250565b7f4552433732313a206d696e7420746f20746865207a65726f2061646472657373600082015250565b7f596f7520617265206e6f742077686974656c6973746564000000000000000000600082015250565b7f4f776e61626c653a2063616c6c6572206973206e6f7420746865206f776e6572600082015250565b7f436f6e74726163742063757272656e746c792070617573656400000000000000600082015250565b7f4552433732313a20696e76616c696420746f6b656e2049440000000000000000600082015250565b7f4552433732313a20617070726f76616c20746f2063757272656e74206f776e6560008201527f7200000000000000000000000000000000000000000000000000000000000000602082015250565b7f45746865722073656e74206973206e6f7420636f727265637400000000000000600082015250565b50565b7f4552433732313a20617070726f76652063616c6c6572206973206e6f7420746f60008201527f6b656e206f776e6572206f7220617070726f76656420666f7220616c6c000000602082015250565b7f455243373231456e756d657261626c653a20676c6f62616c20696e646578206f60008201527f7574206f6620626f756e64730000000000000000000000000000000000000000602082015250565b7f455243373231456e756d657261626c653a20636f6e736563757469766520747260008201527f616e7366657273206e6f7420737570706f727465640000000000000000000000602082015250565b7f50726573616c6520686173206e6f7420656e6465642079657400000000000000600082015250565b613f0981613780565b8114613f1457600080fd5b50565b613f2081613792565b8114613f2b57600080fd5b50565b613f378161379e565b8114613f4257600080fd5b50565b613f4e816137ea565b8114613f5957600080fd5b5056fea26469706673582212201046e52d812aee1204e59c426defa670cee0f07c941e010acc5126753947786c64736f6c63430008040033",
  "linkReferences": {},
  "deployedLinkReferences": {}
}